:100000007530007531007532007533007534007538
:100010003500753600753700753800753900753A4A
:1000200000753B007F00C0071200BC120076D007AD
:10003000D200D201D202C00712008290016875F08E
:10004000801200F17582401200D490017175F08029
:100050001200F1D007EFF4F5901201317F34758270
:1000600034C0071200E4D00780EBC2A3759002D21F
:10007000A2C2A2020127C2A3759006D2A2C2A20206
:10008000011EC297C296C295C294D293A2009292C8
:10009000A2019291A2029290D2A2C2A202011EC219
:1000A000A3C297C296C295D294A2039293A204923D
:1000B00092C291C290D2A2C2A202011EC2A37590A6
:1000C00038D2A2C2A202011EC2A3759001D2A2C25E
:1000D000A2020127AF82C2A374804FF590D2A2C2C0
:1000E000A202011EAF82D2A38F90D2A2C2A20201AD
:1000F0001EAD82AE83AFF08D828E838FF012014CE5
:10010000FCA3AD82AE83ECFB60138B82C007C006FC
:10011000C0051200E4D005D006D00780DA227F3275
:10012000EF14FEFF70FA227FFF8F061EEEFF70F9BC
:10013000227589017F14EF6012758AAF758C3CD2ED
:0C0140008C308DFDC28CC28D1F80EB2224
:1001680030303A30303A30300030312D30312D30A7
:02017800300055
:10014C0020F71430F6148883A88220F507E6A883DC
:0C015C0075830022E280F7E49322E02289
:00000001FF
