:0600000002008E02005B0D
:06005500753000020006F8
:030006000200678E
:10005B0020B2087530007590FF80F532D28875A8F4
:10006B0081753000E530F4F59012007B053080F49B
:10007B00758901758AAF758C3CD28C308DFDC28C25
:09008B00C28D2275815F0200673D
:06002B00E478FFF6D8FDA9
:100009007900E94400601B7A00900094780175A09A
:1000190000E493F2A308B8000205A0D9F4DAF27556
:02002900A0FF36
:100031007800E84400600A790175A000E4F309D86A
:10004100FC7800E84400600C7900900001E4F0A322
:04005100D8FCD9FA04
:00000001FF
