:03000000020006F5
:03005F0002000399
:0300030002006296
:100062007F00EFF4F590C007120072D0070F80F204
:100072007589017F14EF6012758AAF758C3CD28C42
:0B008200308DFDC28CC28D1F80EB2270
:06003500E478FFF6D8FD9F
:100013007900E94400601B7A00900091780175A093
:1000230000E493F2A308B8000205A0D9F4DAF2754C
:02003300A0FF2C
:10003B007800E84400600A790175A000E4F309D860
:10004B00FC7800E84400600C7900900001E4F0A318
:04005B00D8FCD9FAFA
:0D00060075810712008DE582600302000382
:04008D007582002256
:00000001FF
