:100000007530337531327532317533367534357537
:10001000353475363975373875383775393D753A31
:1000200030753B2B7F008F3C8F3D8F3E8F3F8F4045
:100030008F418F428F438F448F458F468F478F4824
:100040008F498F4A8F4B8F4C8F4D8F4EE4F54FF574
:1000500050C0071202071201C1D007D200D201D24C
:1000600002C0071201CDD0077BF77A007E007580B1
:10007000FFEB528074705580FDBD70028022EDF45C
:10008000FC74705CC4035407FDEA75F003A42430CB
:100090002DF98707C007120272120272D007800F73
:1000A000EBC313FB4303F00E8E02BE040040BFBF40
:1000B0003D078F8212022F8053BF2B0F753C01E446
:1000C000F54FF5508F8212022F7F00EF609ABF2B01
:1000D000028095E53C7014AD4FAE50054FE4B54F2E
:1000E000020550ED243DF8A60780177401B53C12B7
:1000F000AD4FAE50054FE4B54F020550ED2443F827
:10010000A6078F8212022F7F0002006890003D75C3
:10011000F0401202A5AE82AF8390004375F040C05C
:1001200007C0061202A5AC82AD83D006D007EC2E24
:10013000FEED3FFF7C007D00EE4F604F8C028D0393
:100140000CBC00010DEA2449F975530A7554008E60
:10015000828F83C007C006C005C004C00112038897
:10016000AA82D001D004D005D006D00774302AF777
:1001700075530A7554008E828F83C005C004120225
:100180007CAE82AF83D004D00580ADEC24FFFEEDC1
:1001900034FFFFEF20E71C8E048F051EBEFF011FFA
:1001A000EC2449F98782C007C00612022FD006D07E
:1001B0000780E080FEC2B3759002D2B2C2B20202E2
:1001C00072C2B3759006D2B2C2B2020269C297C2BD
:1001D00096C295C294D293A2009292A2019291A249
:1001E000029290D2B2C2B2020269C2B3C297C29660
:1001F000C295D294A2039293A2049292C291C29009
:10020000D2B2C2B2020269C2B3759038D2B2C2B2DF
:10021000020269C2B3759001D2B2C2B2020272AFD9
:1002200082C2B374804FF590D2B2C2B2020269AFFB
:1002300082D2B38F90D2B2C2B2020269AD82AE83D3
:10024000AFF08D828E838FF01203D5FCA3AD82AE0A
:1002500083ECFB60138B82C007C006C00512022F1F
:10026000D005D006D00780DA227F32EF14FEFF706F
:10027000FA227FFF8F061EEEFF70F9227A10E4FB50
:10028000FCE58225E0F582E58333F583EB33FBEC77
:1002900033FCEB9553F5F0EC95544006FCABF04382
:1002A0008201DADD22AD82AE83AFF0E4F551F55282
:1002B0008D008E018F02888289838AF01203D5FC1B
:1002C0003395E0FBBC20028003BC090708B800E6B8
:1002D0000980E3880589068A07888289838AF01263
:1002E00003D5FCBC2D03D38001C39205BC2D028035
:1002F00003BC2B050DBD00010E8D828E838FF01285
:1003000003D5FC3395E0FBBC30004048EC24C640EC
:100310004385515385525490000AC007C006C0055A
:1003200012036BAB82AC83D005D006D0078D828ED2
:10033000838FF01203D5FAA3AD82AE83EAF9339529
:10034000E0FAE924D0F9EA34FFFAE92BF551EA3C66
:10035000F55280A530050BC3E49551FEE49552FF9C
:100360008004AE51AF528E828F8322E5828553F096
:10037000A4C582C0F08554F0A4D0F025F0C58385D3
:1003800053F0A42583F58322E553455460467A0152
:10039000E55325E0F553E554334012F554E58295D5
:1003A00053E583955440030A80E6C3E55413F5549E
:1003B000E55313F553C3E5829553F5F0E583955462
:1003C0004005F58385F082C3E55413F554E55313D6
:1003D000F553DAE12220F71430F6148883A882203E
:1003E000F507E6A88375830022E280F7E49322E014
:0103F00022EA
:00000001FF
