:06000000020B2602008342
:01000B0032C2
:03001300020308DD
:1E006500E4F530F531F532F533F534F535753601F537753801F539F53AF53B02001681
:03001600020704DA
:20008300C021C0E0C0F0C082C083C007C006C005C004C003C002C001C000C0D075D0087539
:2000A3003E00753F00754000E4FEFFF53CF53DC00FC00E75D000120AF475D008D00ED00F56
:2000C300C00FC00E75D000120A7B75D008AD82D00ED00F30B20630B3030202EBBD23560573
:2000E3003CE4B53C02053D7402B53C06E4B53D02800D7405B53C06E4B53D028002800A057D
:200103003CE4B53C1A053D8016C37407953C7480853DF063F08095F05005E4F53CF53D85AB
:200123003C82C00FC00E75D000120B8A75D008D00ED00F808BBD2A4E153C74FFB53C02155F
:200143003D7402B53C06E4B53D02800D7405B53C06E4B53D028002800B153C74FFB53C0281
:20016300153D800BE53D30E706753C07753D00853C82C00FC00E75D000120B8A75D008D00D
:200183000ED00F0200C3E53C453D700FC374B28DF063F08095F050030200C37403B53C0644
:2001A300E4B53D02800D7406B53C06E4B53D028002800FC374B58DF063F08095F050030267
:2001C30000C38E0B8F0C0EBE00010FEB243EF8A60D8D82C00FC00E75D000120B9A75D0085C
:2001E300D00ED00F053CE4B53C02053DBE0205BF000280030202D490003E75F040C00FC002
:200203000E75D000120BD475D008AC82AD83D00ED00F7402B53C06E4B53D0280028033C3F2
:2002230074179C74808DF063F08095F05011153C74FFB53C02153D1EBEFF011F0202D48C02
:20024300308D317E007F00053CE4B53C02053D0202D47405B53C06E4B53D0280028031C340
:20026300743B9C74808DF063F08095F05010153C74FFB53C02153D0EBE00560F80538C323C
:200283008D337E007F00053CE4B53C45053D80417408B53C06E4B53D0280028034C3743B4D
:2002A3009C74808DF063F08095F05010153C74FFB53C02153D1EBEFF011F80108C348D3560
:2002C3007E007F00053CE4B53C02053DE4F53CF53D853C82C00FC00E75D000120B8A75D06C
:2002E30008D00ED00F0200C3D0D0D000D001D002D003D004D005D006D007D083D082D0F0D0
:20030300D0E0D02132C021C0E0C0F0C082C083C007C006C005C004C003C002C001C000C075
:20032300D075D0087541007542007543007E007F00753C408F3D758240C00FC00E75D000A5
:20034300120B8A75D008D00ED00FC00FC00E75D000120A7B75D008AD82D00ED00F30B2064F
:2003630030B3030206E7BD2A55153C74FFB53C02153D7442B53C06E4B53D02800D7445B5E0
:200383003C06E4B53D028002800B153C74FFB53C02153D8013C3E53C9440E53D64809480C5
:2003A3005006753C47753D00853C82C00FC00E75D000120B8A75D008D00ED00F808CBD2378
:2003C30058053CE4B53C02053D7442B53C06E4B53D02800D7445B53C06E4B53D02800280CC
:2003E3000A053CE4B53C1B053D8017C37447953C7480853DF063F08095F05006753C4075DD
:200403003D00853C82C00FC00E75D000120B8A75D008D00ED00F02034D7440B53C06E4B530
:200423003D028002800FC374B38DF063F08095F0500302034D7443B53C06E4B53D028002FD
:20044300800FC374B28DF063F08095F0500302034D8E0B8F0C0EBE00010FEB2441F8A60D9C
:200463008D82C00FC00E75D000120B9A75D008D00ED00F053CE4B53C02053DBE0205BF00E9
:200483000280030206D090004175F040C00FC00E75D000120BD475D008AC82AD83D00ED05A
:2004A3000F7442B53C06E4B53D028003020672C3741F9C74808DF063F08095F0506DC3E588
:2004C300369408E537648094805060755A02755B00853682853783C00FC00EC00DC00C75BB
:2004E300D000120D4975D008AA82AB83D00CD00DD00ED00FEA4B7033C3740795367480854A
:2005030037F063F08095F05022BA011FBB001C7402B53606E4B537028011153C74FFB53CB7
:2005230002153D1EBEFF011F0206D0C3741D9C74808DF063F08095F0504C7402B53606E4F1
:20054300B537028002803F755A04755B00853A82853B83C00FC00EC00DC00C75D000120DA8
:200563004975D008E5828583F0D00CD00DD00ED00F45F07011153C74FFB53C02153D1EBE72
:20058300FF011F0206D0C3741C9C74808DF063F08095F0504D7402B53606E4B53702800251
:2005A3008040755A04755B00853A82853B83C00FC00EC00DC00C75D000120D4975D008AA77
:2005C30082AB83D00CD00DD00ED00FBA0114BB0011153C74FFB53C02153D1EBEFF011F0251
:2005E30006D0C3741E9C74808DF063F08095F0506C7402B53606E4B537028061C3E5369420
:2006030008E537648094805054755A02755B00853682853783C00FC00EC00DC00C75D0007F
:20062300120D4975D008AA82AB83D00CD00DD00ED00FEA4B7027C37407953674808537F0BD
:2006430063F08095F05016BA0113BB0010153C74FFB53C02153D1EBEFF011F80708C388DFB
:20066300397E007F00053CE4B53C62053D805E7445B53C06E4B53D028002803CC3740C9C04
:2006830074808DF063F08095F0501BC3EC9401ED648094805010153C74FFB53C02153D1E73
:2006A300BEFF011F80278C368D377E007F00053CE4B53C19053D80157448B53C06E4B53DA1
:2006C30002800280088C3A8D3B7E007F00853C82C00FC00E75D000120B8A75D008D00ED0B9
:2006E3000F02034DD0D0D000D001D002D003D004D005D006D007D083D082D0F0D0E0D02154
:2007030032753601753700753801753900D288D28A75A885120B72120B2CD200D201D20247
:20072300120B38900DB775F080120BA7758240120B8A900DC075F080120BA7E4F530F53151
:20074300E4F532F533E4F534F5350534E4B534020535120B13120AF48532448533458534F9
:200763004685354785308285318312092F0534E4B534020535C3E534943CE5356480948075
:2007830040C8E4F534F5350532B532020533120AF485324485334585344685354785308280
:2007A30085318312092F0532E4B532020533C3E532943CE53364809480408AE4F532F533C0
:2007C3000530B530020531120AF47418B53006E4B5310280028007E4F530F531802D8532D5
:2007E3004485334585344685354785308285318312092F0530E4B530020531C3E530941841
:20080300E53164809480500302074385324485334585344685354785308285318312092F76
:200823000538E4B5380205397401B53606E4B5370280447403B53606E4B5370280397405FF
:20084300B53606E4B53702802E7407B53606E4B5370280237408B53606E4B53702801874F8
:200863000AB53606E4B53702800D740CB53606E4B5370280028021C3741F953874808539E0
:20088300F063F08095F050597538017539000536E4B5364D053780497402B53606E4B53775
:2008A3000280028021C3741C953874808539F063F08095F0502B7538017539000536E4B54B
:2008C300361F0537801B741FB53806E4B539028002800E7538017539000536E4B536020512
:2008E30037740DB53606E4B537028002800E753601753700053AE4B53A02053B7464B53AF7
:2009030006E4B53B0280028005E4F53AF53B758240120B8A853848853949853A4A853B4BB0
:200923008536828537831209D502073EAE82AF83755A0A755B00C007C006120D7FAC827429
:20094300302CF582120B9AD006D007755A0A755B008E828F83120D49AE8274302EF582129F
:200963000B9A75827C120B9A755A0A755B00854482854583120D7FAE8274302EF582120B30
:200983009A755A0A755B00854482854583120D49AE8274302EF582120B9A75827C120B9AB7
:2009A300755A0A755B00854682854783120D7FAE8274302EF582120B9A755A0A755B0085F3
:2009C3004682854783120D49AE8274302EF582020B9AAE82AF83755A0A755B00C007C006DD
:2009E300120D7FAC8274302CF582120B9AD006D007755A0A755B008E828F83120D49AE821A
:200A030074302EF582120B9A75827C120B9A755A0A755B00854882854983120D7FAE82741E
:200A2300302EF582120B9A755A0A755B00854882854983120D49AE8274302EF582120B9A46
:200A430075827C120B9A755A0A755B00854A82854B83120D7FAE8274302EF582120B9A75D9
:200A63005A0A755B00854A82854B83120D49AE8274302EF582020B9A754C33754D32754E68
:200A830031754F3675503575513475523975533875543775552375563075572A7F007EF762
:200AA3007D007C007580FFEE528074705580FBBB70028022EBF4FA74705AC4035407FBEDE2
:200AC30075F003A4244C2BF98707C007120B09120B09D007800FEEC313FE4306F00C8C05D4
:200AE300BC040040BFEF700630B3B330B2B08F8222C2A3759002D2A2C2A2020B097F32EF7A
:200B030014FEFF70FA227FFF8F061EEEFF70F922758901758AAF758C3CD28C308DFDC28C3C
:200B2300C28D2275815F020704C2A3759006D2A2C2A2020B00C297C296C295C294D293A225
:200B4300009292A2019291A2029290D2A2C2A2020B00C2A3C297C296C295D294A203929360
:200B6300A2049292C291C290D2A2C2A2020B00C2A3759038D2A2C2A2020B00C2A37590012C
:200B8300D2A2C2A2020B09AF82C2A374804FF590D2A2C2A2020B00AF82D2A38F90D2A2C226
:200BA300A2020B00AD82AE83AFF08D828E838FF0120D2DFCA3AD82AE83ECFB60138B82C073
:110BC30007C006C005120B9AD005D006D00780DA22DA
:120DB70030307C30307C30300030317C30317C303000F8
:06003B00E478FFF6D8FD99
:200BD400AD82AE83AFF0E4F558F5598D008E018F02888289838AF0120D2DFC3395E0FBBC9F
:200BF40020028003BC090708B800E60980E3880589068A07888289838AF0120D2DFCBC2DF0
:200C140003D38001C39205BC2D028003BC2B050DBD00010E8D828E838FF0120D2DFC33952D
:200C3400E0FBBC30004048EC24C6404385585A85595B90000AC007C006C005120C9AAB82B7
:200C5400AC83D005D006D0078D828E838FF0120D2DFAA3AD82AE83EAF93395E0FAE924D085
:200C7400F9EA34FFFAE92BF558EA3CF55980A530050BC3E49558FEE49559FF8004AE58AF7A
:060C9400598E828F8322BD
:200019007900E94400601B7A00900DC9780175A000E493F2A308B8000205A0D9F4DAF275B7
:02003900A0FF26
:1D0C9A00E582855AF0A4C582C0F0855BF0A4D0F025F0C583855AF0A42583F5832226
:200CB700E55A455B60467A01E55A25E0F55AE55B334012F55BE582955AE583955B40030A7A
:200CD70080E6C3E55B13F55BE55A13F55AC3E582955AF5F0E583955B4005F58385F082C3C3
:0D0CF700E55B13F55BE55A13F55ADAE122CF
:200041007800E84400600A790175A000E4F309D8FC7800E84400600C7900900001E4F0A3BD
:04006100D8FCD9FAF4
:200D04007A10E4FBFCE58225E0F582E58333F583EB33FBEC33FCEB955AF5F0EC955B40065F
:090D2400FCABF0438201DADD2290
:1C0D2D0020F71430F6148883A88220F507E6A88375830022E280F7E49322E022D5
:200D4900C2D5E58330E70DD2D5E4C39582F582E49583F583E55B30E70BE4C3955AF55AE4EC
:160D6900955BF55B120CB730D50BE4C39582F582E49583F5832284
:200D7F00C2D5E58330E70DD2D5E4C39582F582E49583F583E55B30E70DB2D5E4C3955AF56B
:180D9F005AE4955BF55B120D0430D50BE4C39582F582E49583F58322C0
:00000001FF
